:020000040800F2
:10000000E8070020811300083503000837030008C3
:10001000390300083B0300083D030008000000000E
:100020000000000000000000000000003F03000886
:1000300041030008000000004303000845030008D6
:100040009B1300089B1300089B1300089B130008D8
:100050009B1300089B1300089B1300089B130008C8
:100060009B1300089B1300089B1300089B130008B8
:100070009B1300089B1300089B1300089B130008A8
:100080009B1300089B1300089B1300089B13000898
:100090009B1300089B1300089B1300089B13000888
:1000A0009B1300089B1300089B1300089B13000878
:1000B0009B130008170500089B1300089B130008FA
:1000C0009B1300089B1300089B1300089B13000858
:1000D0009B130008E30A0008BF0B00089B130008ED
:1000E0009B1300089B1300089B1300089B13000838
:1000F0009B1300089B1300089B1300089B13000828
:100100009B1300089B1300089B1300089B13000817
:100110009B1300089B1300089B1300089B13000807
:100120009B1300089B1300089B1300089B130008F7
:1001300000F002F800F03EF80AA090E8000C8244BB
:100140008344AAF10107DA4501D100F033F8AFF298
:10015000090EBAE80F0013F0010F18BFFB1A43F0A5
:1001600001031847B02C0000D02C0000103A24BF27
:1001700078C878C1FAD8520724BF30C830C144BF0C
:1001800004680C607047000000230024002500264E
:10019000103A28BF78C1FBD8520728BF30C148BFEA
:1001A0000B6070471FB59DE8030002F0ADFC1FBD5A
:1001B00010B510BD02F0ADFD1146FFF7F3FF00F0E2
:1001C00009F802F0CBFD03B4FFF7F2FF03BC02F025
:1001D000F9FD000000F082FB00F0CCFB4FF416505C
:1001E00000F0CCFB4FF4E13000F009FC01F064F8C2
:1001F00041F61F41C82000F061F902E0C82000F07C
:100200009BFB00F055FA0128F8D1424FDFF8088136
:10021000DFF808B1424EDFF80C910024DFF808A1A6
:10022000424D70E03068A22809D200F00CFB012892
:1002300008D0642000F080FB002000F030FB28781C
:1002400008B33FE0306808B90120306000F0B5FA2B
:100250000128F4D1642000F06FFB306800F01FFB30
:100260003068A8F800003968012907D080B200F092
:1002700054FD3068401C30602C70E0E780B200F024
:1002800068FD3C60F5E700F080FACBF80000411E05
:10029000B1F57A7F0DD200F002FBB8F80010DBF860
:1002A0000000884202D1A8F8004002E080B200F0CD
:1002B00018FDDBF80000A0F57F41FF3902D10020D6
:1002C00000F0EDFA2878032808D11948006800F0FA
:1002D00097FA012801D100F0B5FD2C7099F80000C3
:1002E00001280AD189F8004000F0F9F92C7000F0DB
:1002F00097FD3460002000F0D2FA9AF8000001283F
:1003000001D18AF8004000F0AFFD2878012896D18D
:1003100088E7000018000020E400002020000020F2
:1003200014000020B800002024000020B7000020A6
:100330001C0000207047FEE7FEE7FEE7FEE770477F
:1003400070477047704700000CB500220192009280
:100350005248016841F4803101604FF4A0630168A4
:1003600001F4003100910199491C0191009911B9E2
:1003700001999942F3D10168890302D501210091C5
:1003800000E000920099012930D145490A6842F005
:1003900010020A600A6822F003020A600A6842F04A
:1003A00002020A604168416041684160416841F46D
:1003B00080614160416821F47C114160416841F4F1
:1003C000E8114160016841F08071016001688901B4
:1003D000FCD5416821F003014160416841F0020110
:1003E00041604168C1F381010229FAD10CBDABE73C
:1003F00010B52A48016841F0010101604168294AAD
:10040000114041600168284A11400160016821F4EF
:1004100080210160416821F4FE0141604FF41F0119
:100420008160FFF7E4FF21494FF00060086010BDD4
:1004300010B51A4A506800F00C011D4B1D480029E8
:100440000ED004290ED008290ED003605168194A35
:10045000C1F30311121D515C0268CA40026010BD55
:100460000360F3E70360F1E7516801F4701153682A
:1004700003F48033022404EB914133B153689B03AE
:1004800007D50D4B59430160E0E70B4B5943016021
:10049000DCE7074B59430160D8E700000010024039
:1004A000002002400000FFF8FFFFF6FE08ED00E02C
:1004B00000127A000000002000093D007FB50446CC
:1004C0000D460121022001F0F5F9ADF80840ADF824
:1004D00004500024ADF80A40ADF806401B4D01A9B8
:1004E000284601F045FD01221146284602F02BF86E
:1004F0001D218DF800108DF8014003218DF80210A8
:1005000001218DF80310684601F0F3FB0121284614
:1005100001F0FFFF7FBD10B50C4C0121204602F019
:1005200045FA00280ED00121204602F04BFA084976
:10053000D1F8880138B10020C1F888010548016868
:10054000491C016010BD0120F6E7000000040040D6
:10055000008022422C00002070B50446DC4D402172
:10056000284601F08BFBA1B2284601F013FB402185
:10057000284601F07CFB0128F9D170BD2DE9F34F2D
:1005800081B000250021009100268B4610F8017BE8
:10059000044605E02078FFF7DFFF641C6D1CEDB218
:1005A000BD42F7D34FF00108CA4A00215170002024
:1005B000DFF824A30AF80010401CC0B25028F9D379
:1005C000B8F1010F71D14FF000080027B94600249F
:1005D000C048816040F22551BD4801F053FBE8B3AB
:1005E000BB4801F0DBFAC5B22021B94801F046FB57
:1005F000EF2D00D127B1012E07D0022E14D044E0F8
:1006000000248AF800500126E4E7012D05D00026D9
:10061000B0460027B1460024DCE70226641CE4B2A1
:100620000AF804500127D5E7012F2ED1641CE4B24B
:100630000AF80450062C00D3AB44082C09D19AF8D0
:1006400008009AF8071000EB0120C0B200904FF0AC
:100650000109B9F1010F18D1009800E015E0083048
:10066000844212D10AEB04001AF8042010F8010C9D
:10067000ABEB0001891A05EB0020884202D04FF055
:1006800000080CE04FF0010809E0924802998268E6
:100690008A4204D8502C02D2007800289AD0202117
:1006A0008B4801F0EBFA8B4844704046BDE8FE8F62
:1006B00070B50024874D884E864814210C30FFF712
:1006C0005DFF20B168780B2801D1707A28B1641CD5
:1006D000E4B2032CF0D3002070BD012070BD10B532
:1006E000C82000F029F97B483221BDE8104086304F
:1006F00044E770B50646774859211D30FFF73EFFA5
:1007000030B1744C60780B2802D1734D687A08B10F
:10071000002070BD012E03D0022E10D0002070BD2D
:100720006C483C212A30FFF729FF20B160780B2864
:1007300001D1687A08B1002070BD012070BD654804
:100740003C213830FFF71AFF20B160780B2801D127
:10075000687A08B1002070BD012070BD10B55D48F9
:100760003C214630FFF70AFF30B15A4948780F283C
:1007700002D15948427A0AB1002010BDC27A807A6B
:1007800002EB00204860012010BD10B500240120BC
:10079000FFF7AFFF012805D0641CE4B2052CF6D3A7
:1007A000002010BDFFF7DAFFC0B2012802D04FF6DB
:1007B000FF7010BD4748406810BD70B50021002291
:1007C000444C454B6534655C5D54491CC9B21029E5
:1007D000F9D3010A197358730720195C0A44401CA5
:1007E000C0B20E28F9D3100A9873DA7346213A483A
:1007F000FFF7C4FE012801D0002070BD012070BDAC
:1008000070B500210022334C334B7534655C5D5468
:10081000491CC9B21129F9D3010AD97218730720EA
:10082000195C0A44401CC0B20F28F9D3100AD873CF
:100830001A7450212848FFF7A1FE012801D000209A
:1008400070BD012070BD10B500240120FFF751FFDD
:10085000012806D00028F8D1641CE4B2282CF4D377
:1008600010BD642000F068F84FF4FA6000F064F8FE
:100870000220FFF73EFF0128FAD116482821583000
:10088000FFF77CFE012806D1124840780B2802D1E0
:100890001148407A08B1002010BD012010BD0CB5F0
:1008A0000021009101914FF47A71B0FBF1F2B0FB9D
:1008B000F1F201FB12026421B2FBF1F2B0FBF1F2A2
:1008C00001FB12020A21B2FBF1F2B0FBF1F00CBD08
:1008D00000380140240000200001002010B56FF016
:1008E000040001F049FA204820490068B0FBF1F00B
:1008F0001F49C0B2087000EB4002C2EBC0104FF6B7
:10090000FF7202EAC000488010BD194909784843C7
:100910004FF0E021486100238B61086940F001003D
:1009200008610869C20701D0C003FAD5086920F040
:10093000010008618B6170470D49498848434FF0B9
:10094000E021486100238B61086940F001000861E3
:100950000869C20701D0C003FAD5086920F0010078
:1009600008618B61704700000000002000127A00CF
:10097000BA0000204FF4A06001F0B6B970B586B09F
:100980000446012144F2040000F089FFA44D2846EA
:1009900000F0DCFF6815ADF8140003208DF8160098
:1009A00018208DF817009F4E05A9304600F071FD04
:1009B0002815ADF8140048208DF8170005A9304619
:1009C00000F067FD01940020ADF80800ADF80A00C2
:1009D000ADF80C00ADF810000C20ADF80E0001A928
:1009E000284600F0FBFF012240F22551284601F085
:1009F0007CF80121284601F06CF806B070BD2DE9A5
:100A0000F04188B005460121042000F048FF012193
:100A1000480400F04FFF844F384600F097FF04264B
:100A2000ADF81C6003248DF81E4018208DF81F00BF
:100A3000DFF8F08107A9404600F02BFD0820ADF853
:100A40001C008DF81F6007A9404600F022FD2620FB
:100A50008DF800008DF801408DF8024001208DF8DE
:100A60000300684601F045F903950020ADF8100039
:100A7000ADF81200ADF81400ADF818000C21ADF877
:100A80001610ADF80400ADF80600F101ADF808103D
:100A9000ADF80A0003A9384600F0A0FF01A93846C6
:100AA00001F002F8012240F22551384601F01DF80C
:100AB0000121384601F00DF808B0BDE8F08170B5AD
:100AC0000546594C4021204601F0D8F829462046D9
:100AD00001F060F84021204601F0C9F80128F9D161
:100AE00070BD7047F0B5514B012619465C78097806
:100AF0004FF0000C4A1CD2B2002C3ED0062917D071
:100B00004FF6FF7404EA0025072915D0082917D0ED
:100B100009291DD01C46248927460A340A291BD3DB
:100B2000A14219D21A704249114401F80B0CF0BDD0
:100B3000D87007201870F0BDDD8008201870F0BD57
:100B4000D9880143D980C91E198109201870F0BDC8
:100B500018710A201870F0BDA14202D15D811A708F
:100B6000F0BD0B37B942FBD15989014359819E70C1
:100B700083F801C083F800C0F0BD2E4C21B9257860
:100B8000854201D11E70F0BD012905D164788442EF
:100B900002D102201870F0BD8C1E032C0AD8264CFE
:100BA000214411F8021C814204D11A70062AF2D3A2
:100BB0005E70F0BD83F802C083F800C0F0BD10B5D0
:100BC000194C40F22551204601F05CF838B100F094
:100BD0004BF9204600F0E2FFC0B2FFF783FFBDE80B
:100BE00010404FF480710F4800F0C4BC70B5002174
:100BF00000200E4DEA78EB881A442B791A4492B201
:100C00000B4C2B8904E0665C324492B2491C89B2D9
:100C10009942F8D369898A4200D1012070BD000051
:100C2000003801400008014000440040BE000020A0
:100C300050010020CF000020DA00002070B50546EA
:100C4000BA48446903E02078FFF739FF641C6D1E41
:100C5000ADB2F8D270BD2DE9F0410E4698460024A1
:100C6000B24D28706A70F01CA881020A691D0A70D2
:100C7000487006F10C0087B26F81686901F0B9FE17
:100C80000121384601F0A1FE6861B5F8031001802A
:100C9000D5F80E10C0F8021029788171B5F805104A
:100CA000A0F8071069784172324641460A3001F0D7
:100CB000C7FE0620BA1E696904E00B5C23449CB29F
:100CC000401C80B29042F8DB9848220AC01D027096
:100CD00044708819B5F8071041813846BDE8F041E5
:100CE000ACE770B5054611260121304601F06DFED6
:100CF0000446204600F0C7FA8C488078A073280A82
:100D0000E07325742346052231460120FFF7A3FF37
:100D10002046BDE8704001F06CBE70B50546112656
:100D20000121304601F051FE0446204600F0ABFAA6
:100D30007E488078A073280AE07325742346052234
:100D400031460220FFF787FF2046BDE8704001F0E2
:100D500050BE70B5054611260121304601F035FE22
:100D60000446204600F08FFA70488078A073280A65
:100D7000E07325742346052231460620FFF76BFFFA
:100D80002046BDE8704001F034BE70B50E2401214C
:100D9000204601F01AFE0546284600F074FA2B465C
:100DA000132221460520FFF756FF2846BDE8704074
:100DB00001F01FBE70B500240121204601F005FEA0
:100DC00005462B46012221460020FFF744FF284616
:100DD000BDE8704001F00DBE70B500240121204631
:100DE00001F0F3FD05462B46092221461320FFF7AB
:100DF00032FF2846BDE8704001F0FBBD70B500240D
:100E00000121204601F0E1FD05462B461322214633
:100E10000820FFF720FF2846BDE8704001F0E9BD3B
:100E200070B500240121204601F0CFFD05462B4678
:100E3000112221461020FFF70EFF2846BDE8704022
:100E400001F0D7BD70B500240121204601F0BDFDA1
:100E500005462B46112221460920FFF7FCFE2846B5
:100E6000BDE8704001F0C5BD70B5314C2078002858
:100E70005AD030480025007810B9FFF7B7FE78B394
:100E80002D482E4901220078284B2D4E08282BD0C2
:100E900007DC68B101280ED002280ED0062842D106
:100EA00010E0092826D0102834D013283BD134E094
:100EB000FFF780FF37E00D7035E02248007828BB4F
:100EC0000A7030E030789B7898420AD170781E4BD7
:100ED0000002B678304418600A701C48026022E0B4
:100EE0001FE0FFF779FF1EE0154800F0D9F9FFF782
:100EF0004CFF18E030789A78904208D17078144A04
:100F00000002B37818441060032008700BE0FFF76C
:100F100063FF08E00F48027005E05889FFF78EFE76
:100F200001E0FFF759FF257070BD0000CC000020E4
:100F3000C0000020CA000020C1000020B70000202F
:100F400050010020C20000201400002018000020E2
:100F50001C000020B800002010B50121042000F082
:100F60009EFCFF4CE021204600F004FBFD49E022FE
:100F70000A801022CA7001228A702046BDE8104003
:100F800000F087BA401E411CFCD17047F548402153
:100F900001801021C1700146F14800F07ABAF14891
:100FA000402101804821C1700146ED4800F071BA2E
:100FB0002DE9F04705460124E94F4FF0400810376E
:100FC00007F104092026254202D0C7F8008001E07D
:100FD000C9F800803E603220FFF7D4FFC9F80060F6
:100FE0006006040E002CEED1BDE8F0872DE9F04735
:100FF00000250124DA4FDFF86883083708F1140868
:101000002026A8F104093868400600D52543C8F811
:1010100000603220FFF7B6FFC9F800606006040EDA
:10102000002CF0D16808DFE730B530230624002219
:1010300032250D7030254D70891C0CE0057803EBCE
:1010400015150D7010F8015B05F00F051D444D706E
:10105000891C521CD2B2A242F0D330BD70B53024EC
:1010600006250022891C0DE00B781B1B1B01037059
:101070004E78891C361B06F00F061E4300F8016BE4
:10108000521CD2B2AA42EFD370BD2DE9F0410746FF
:101090000E46FFF77BFFB24C8025143425602020DC
:1010A0002060201F05606420FFF76CFF3846FFF7C3
:1010B0007FFF3046FFF77CFF6420FFF763FF25606A
:1010C000BDE8F08170B50646FFF760FFA44D8024AF
:1010D00014352C6020212960281F04606420FFF74C
:1010E00051FF46F00100FFF763FFFFF758FFFFF7DE
:1010F0007DFF06466420FFF745FF2C60304670BD3B
:1011000010B504468C20FFF7DDFF20708A20FFF722
:10111000D9FF60708820FFF7D5FFA0708620FFF709
:10112000D1FFE0708420FFF7CDFF20718220FFF710
:10113000C9FF60718020FFF7C5FFA07110BDC021FD
:1011400041EA4000C0B2BDE770B504460D4600213B
:101150008E20FFF79AFFC02040EA4400C0B2294623
:10116000FFF793FFBDE8704080218E208DE72DE9C9
:10117000F04105460E4617461E2FA1D8002408E070
:101180003019401CC0B2FFF7DAFF05F8010B641CF0
:10119000E4B2BC42F4D393E72DE9F04105460F4693
:1011A00016461E2E8CD8002408E03819401C15F86D
:1011B000011BC0B2FFF7C8FF641CE4B2B442F4D311
:1011C0007EE770B50446FFF7E1FE654E80251436D4
:1011D000356020203060301F05606420FFF7D2FEAC
:1011E000BF20FFF7E5FEFFF7DAFEFFF7FFFE6071B5
:1011F000FFF7FCFE2071FFF7F9FEE070FFF7F6FE47
:10120000A070FFF7F3FE6070FFF7F0FEFFF7EEFE51
:101210002070FFF7EBFE6420FFF7B4FE356070BD71
:1012200070B5044600218E20FFF72FFFFFF7AEFEBA
:101230004B4E80251436356020203060301F05600D
:101240006420FFF79FFEBE20FFF7B2FE6079FFF734
:10125000AFFE2079FFF7ACFEE078FFF7A9FEA0789B
:10126000FFF7A6FE6078FFF7A3FE0120FFF7A0FEC0
:101270002078FFF79DFE8020FFF79AFE6420FFF79D
:1012800081FE356070BD1CB50446002200920192BB
:101290006846FFF796FF21466846FFF7C5FE1CBD6E
:1012A0001CB500220092019201466846FFF7D6FE67
:1012B0006846FFF7B5FF1CBD10B5FFF74DFE0020D7
:1012C000FFF73DFF25281BD025210020FFF73CFF1D
:1012D00000218E20FFF7D9FE03219020FFF7D5FED5
:1012E00000218420FFF7D1FE00218020FFF7CDFEF2
:1012F0001DA0FFF7D5FF8021BDE810408E20C4E679
:1013000010BD92B0FFF728FEFFF7D6FF13208DF82F
:10131000400005208DF8410023208DF8420009206F
:101320008DF8430025208DF8440000248DF84540B9
:1013300010A8FFF775FF002008AA694610540C5446
:10134000401CC0B21E28F9D31E22002108A8FFF7B6
:1013500023FF1E2200216846FFF709FF10A80BE0BB
:1013600000080140E600002032303136303131359E
:101370003032333530300000FFF723FFEEE7000056
:101380000948804709480047FEE7FEE7FEE7FEE719
:10139000FEE7FEE7FEE7FEE7FEE7FEE70448054955
:1013A000054A064B70470000F103000831010008B0
:1013B000E8010020E8070020E8030020E8030020FF
:1013C00010B59C49884209D10121042000F07DFA22
:1013D0000021BDE81040042000F077BA9649884209
:1013E00009D10121082000F070FA0021BDE8104069
:1013F000082000F06ABA9149884209D101211020E1
:1014000000F063FA0021BDE81040102000F05DBA42
:101410008B49884209D10121202000F056FA002191
:10142000BDE81040202000F050BA8649884209D11A
:101430000121402000F049FA0021BDE81040402081
:1014400000F043BA8049884209D10121802000F090
:101450003CFA0021BDE81040802000F036BA7B49FC
:1014600088420AD184150121204600F02EFA204638
:10147000BDE81040002100F028BA10BD10B50121D0
:10148000084600F022FA0021BDE81040012000F0DB
:101490001CBA2DE9F0410022CC7804F00F03E406D9
:1014A00001D58C7823430C784FF00F0714F0FF0F11
:1014B0004FF0010C1CD005680CFA02F40E8826408F
:1014C000A64211D1960007FA06F825EA080503FAA4
:1014D00006F848EA0505CE78282E02D0482E02D01C
:1014E00002E0446100E00461521C082AE4D3056074
:1014F0000A88FF2A1ED94568002202F108060CFA64
:1015000006F40E882640A64210D1960007FA06F887
:1015100025EA080503FA06F848EA0505CE78282EDC
:1015200000D14461CE78482E00D10461521C082AB3
:10153000E3D34560BDE8F0814FF6FF7101800221E1
:1015400081700421C17070470246002092680A42EF
:1015500000D001207047806880B2704702460020AA
:10156000D2680A4200D001207047C06880B270473C
:101570000161704741617047002A01D001617047E5
:1015800041617047C160704741F48032826181617E
:10159000826181698069704710B52D4B1A684FF6DA
:1015A0008074224042EA00100843186010BD2949A7
:1015B000C8617047F0B5264C002801DAE36900E005
:1015C0006368C0F30346420D120185B2C0F30157B0
:1015D0009540032F07D0C2020CD50322B24093439B
:1015E00043F0706209E023F07062636823F0706377
:1015F000636002E0AB4343F0706201B12A4300280C
:1016000001DAE261F0BD6260F0BD10B58A07120F29
:101610000F23934021F003040D4921448C689C431F
:101620008C608B68904003438B6010BD0949DC31AE
:101630000860704700080140000C014000100140A4
:101640000014014000180140001C0140002001402E
:101650000000014000002042B448016841F001014F
:1016600001604168B24A114041600168B14A1140CD
:101670000160016821F480210160416821F4FE01CC
:1016800041604FF41F0181607047A8490A6822F445
:1016900080320A600A6822F480220A60B0F5803F36
:1016A00007D0B0F5802F03D1086840F4A02008606F
:1016B0007047086840F48030086070470346002097
:1016C00059099A4A01290AD002290AD0516A03F01D
:1016D0001F02012393400B4200D001207047116884
:1016E000F5E7116AF3E718B5002000904FF4A06405
:1016F0003120FFF7E3FF0099491C00910099A142B6
:1017000001D00028F4D03120FFF7D8FF08B1012024
:1017100018BD002018BD854A116821F0F80141EA82
:10172000C000106070478449086070477F4B5A685A
:1017300022F47C1208431043586070477E490866C3
:1017400070477A4A516821F00301014351607047A4
:101750007648406800F00C007047744A516821F0E8
:10176000F001014351607047704A516821F4E06113
:101770000143516070476D4A516821F4605141EA5C
:10178000C00050607047694A002903D0517A014374
:1017900051727047517A8143517270476649D8310E
:1017A00008607047614A516821F44041014351602B
:1017B00070475E49002220310A7001F82029012873
:1017C00005D0042802D1052081F8200070470120AF
:1017D00081F82000704759490860704753490A6AE8
:1017E00002430A627047554944390860704710B592
:1017F0004E4A516801F00C01514B002927D00429B1
:1018000027D0082927D00360516801F0F0010909A9
:101810004C4B5C5C0168E1404160546804F4E06456
:10182000240A1C5D21FA04F48460546804F46054B2
:10183000E40A1B5DD940C160526802F44042920B39
:10184000404B1B1F9A5CB1FBF2F1016110BD0360BC
:10185000DAE70360D8E7516801F47011536803F4C4
:101860008033022404EB914133B153689B0307D5C5
:10187000354B59430160C7E7334B59430160C3E718
:101880002F4B59430160BFE7284A002903D0516913
:101890000143516170475169814351617047234A47
:1018A000002903D091690143916170479169814397
:1018B000916170471D4A002903D0D1690143D1616C
:1018C0007047D1698143D1617047184A002903D01C
:1018D000D1680143D1607047D1688143D1607047BE
:1018E000124A002903D0116901431161704711693F
:1018F00081431161704711494039086070470E49B2
:10190000C86470470949C87170470848416A41F086
:1019100080714162704701460020044A92680A4281
:1019200000D00120704701498872704700100240C2
:101930000000FFF8FFFFF6FE000042428004424232
:1019400000127A00EE00002000093D0010B5E149C8
:1019500088420AD101218C032046FFF7B6FF2046BA
:10196000BDE810400021FFF7B0BFDB4988420AD133
:1019700001214C042046FFF7B3FF2046BDE810408C
:101980000021FFF7ADBFD54988420AD101218C045F
:101990002046FFF7A5FF2046BDE810400021FFF7D5
:1019A0009FBFCF4988420AD10121CC042046FFF7CE
:1019B00097FF2046BDE810400021FFF791BFC949BD
:1019C00088420AD101210C052046FFF789FF2046F5
:1019D000BDE810400021FFF783BF10BD30B585B0D2
:1019E00004460D46208A4CF6FF710840E988014301
:1019F0002182A0894EF6F3110840A9882A89114353
:101A00006A8902431143A181A08A4FF6FF41084031
:101A1000A9890143A1826846FFF7E9FEAD488442E7
:101A200001D1039800E00298A189090408D500EBD0
:101A3000C00101EB001029684900B0FBF1F007E09C
:101A400000EBC00101EB001029688900B0FBF1F048
:101A50006422B0FBF2F109010B096FF018056B432A
:101A600000EB8300A3891D044FF0320307D503EB7D
:101A7000C000B0FBF2F000F00700084306E003EB03
:101A80000010B0FBF2F000F00F000843208105B019
:101A900030BD4FF41651016000218180C180018169
:101AA0000C2242818181704710B5038A4FF2FF02F8
:101AB00013400A884C8822438C88C9880C432243EF
:101AC0001A43028210BD0021018041808180C180C3
:101AD0007047002904D0818941F400518181704709
:101AE000818921F400518181704710B540F66A1355
:101AF000C1F3421301F01F040121A140012B07D0C3
:101B0000022B07D014303AB102680A43026010BDBC
:101B10000C30F8E71030F6E702688A43026010BD27
:101B2000002A03D0828A0A4382827047828A8A43CB
:101B300082827047028A22F00F020282028A0A43DE
:101B400002827047828922F40062828182890A437C
:101B500082817047002904D0818941F0020181818E
:101B60007047818921F0020181817047028A22F049
:101B700020020282028A0A4302827047002904D0AE
:101B8000018A41F4804101827047018A21F4804139
:101B900001827047C1F30801818070478088C0F3DB
:101BA00008007047818941F0010181817047028BF3
:101BB000D2B20283028B42EA012101837047028B79
:101BC00002F47F420283028B0A430283704700299A
:101BD00004D0818A41F0200181827047818A21F0FE
:101BE000200181827047002904D0818A41F01001D0
:101BF00081827047818A21F010018182704700291B
:101C000004D0818A41F0080181827047818A21F0E5
:101C1000080181827047002904D0818941F4004184
:101C2000818170478189C1F30E018181704700294C
:101C300004D0818A41F4006181827047818A21F455
:101C4000006181827047828A22F004028282828A45
:101C50000A4382827047002904D0818A41F0020140
:101C600081827047818A21F0020181827047024699
:101C7000002012880A4200D0012070478A05C9431B
:101C80000180704770B5002440F66A12C1F3421318
:101C900001F01F05012606FA05F2012B0CD0022BDC
:101CA0000DD0838A1340090A8E40008830400BB162
:101CB00000B10124204670BD83891340F3E7038AF5
:101CC0001340F0E740F66A120A0A01219140C94325
:101CD0000180704700380140004400400048004047
:101CE000004C0040005000402A4908432A4908603F
:101CF000704770B50F23C27801260178002A1ED0E4
:101D0000254A126802F4E062C2F5E062120AC2F1EA
:101D10000404D3404578A54082781A402A43120132
:101D200001F1E02181F80024007800F01F018E40CD
:101D30004009800000F1E020C0F8006170BD01F0B2
:101D40001F0086404809800000F1E020C0F8806153
:101D500070BD124A114001430F48001F01607047D7
:101D60000D4A121D002903D011680143116070470C
:101D700011688143116070474FF0E021042804D0BE
:101D8000086920F0040008617047086940F0040009
:101D9000086170470000FA050CED00E080FFFF1FAE
:101DA00010B5FE4988420AD1C41401212046FFF72C
:101DB0008CFD2046BDE810400021FFF786BDB0F144
:101DC000804F0CD0F649884213D101210220FFF741
:101DD00087FD0021BDE810400220FFF781BD0121F1
:101DE0000846FFF77DFD0021BDE810400120FFF708
:101DF00077BDEC49884209D101210420FFF770FD2D
:101E00000021BDE810400420FFF76ABDE649884282
:101E100009D101210820FFF763FD0021BDE8104032
:101E20000820FFF75DBDE149884209D1012110205A
:101E3000FFF756FD0021BDE810401020FFF750BD10
:101E4000DB49884209D101212020FFF749FD00210B
:101E5000BDE810402020FFF743BDD64988420AD193
:101E6000441401212046FFF730FD2046BDE8104014
:101E70000021FFF72ABDD04988420AD10121CC04B4
:101E80002046FFF722FD2046BDE810400021FFF765
:101E90001CBDCA4988420AD101210C052046FFF722
:101EA00014FD2046BDE810400021FFF70EBDC449D7
:101EB00088420AD101214C052046FFF706FD204645
:101EC000BDE810400021FFF700BDBE49884209D19E
:101ED00001214020FFF704FD0021BDE81040402013
:101EE000FFF7FEBCB849884209D101218020FFF7E5
:101EF000F7FC0021BDE810408020FFF7F1BCB3499A
:101F000088420AD1841501212046FFF7E9FC2046CA
:101F1000BDE810400021FFF7E3BCAD4988420AD17B
:101F200001210C042046FFF7D0FC2046BDE81040FC
:101F30000021FFF7CABCA74988420AD101214C04FD
:101F40002046FFF7C2FC2046BDE810400021FFF705
:101F5000BCBCA14988420AD101218C042046FFF76C
:101F6000B4FC2046BDE810400021FFF7AEBC10BD18
:101F700030B50288894C8F4DA0420DD0A8420BD0BD
:101F8000B0F1804F08D0864B984205D0854B9842DF
:101F900002D0854B984203D122F070034A881A433D
:101FA000824B984206D0824B984203D022F4407371
:101FB000CA881A4302808A8882850A880285A042DC
:101FC0000AD0A84208D0824A904205D0814A904265
:101FD00002D0814A904201D1097A01860121818291
:101FE00030BD30B5028C22F001020284028C83885D
:101FF000048B24F0700424F003050C882C4322F099
:1020000002020D8915434A882A43644DA8420BD029
:10201000684DA84208D06E4DA84205D06D4DA8422B
:1020200002D06D4DA8420FD122F008054A892A43FB
:1020300022F004058A882A4323F4807323F4007372
:102040008D891D43CB892B4383800483C988818676
:10205000028430BD70B5028C22F010020284028C22
:102060008388048B24F4E04424F440760D884FF6F2
:10207000FF7404EA0525354322F020020E8904EAA4
:10208000061616434A8804EA02123243434EB0420F
:1020900002D0484EB04217D122F080024E8904EAA5
:1020A0000616164326F040068A8804EA02123243D6
:1020B00023F4806323F400638E8904EA86061E43BA
:1020C000CB8904EA8303334383800583C98801876E
:1020D000028470BD70B5028C22F480720284028C7E
:1020E0008388848B24F0700424F003040D88254336
:1020F00022F400720E894FF6FF7404EA0626164396
:102100004A8804EA02223243244EB04202D0294EC9
:10211000B04217D122F400664A8904EA022232430F
:1021200022F480668A8804EA0222324323F4805330
:1021300023F400538E8904EA06161E43CB8904EA71
:102140000313334383808583C9888187028470BDEC
:1021500070B5028C22F480520284058C8288838BB5
:1021600023F4E04323F440760C884FF6FF7303EA30
:102170000424344325F400550E8903EA06362E4321
:102180004D8803EA05353543044EB04202D0094E6E
:10219000B04226D122F480468A891FE0002C0140FB
:1021A0000004004000080040000C00400010004007
:1021B0000014004000340140004C01400050014038
:1021C0000054014000180040001C00400020004066
:1021D00000400140004401400048014003EA8212EF
:1021E000324382808483C988A0F84010058470BD82
:1021F000828B22F440628283828B4FF6FF7303EA64
:1022000001210A4382837047F0B5048C24F4805482
:102210000484868B048C4FF6FF7505EA013726F49B
:10222000734605EA0222324305EA03331343F74AB1
:1022300090420ED0F64A90420BD0B0F1804F08D0B9
:10224000F44A904205D0F44A904202D0F34A9042B8
:1022500005D124F40051394341F4805104E024F4C1
:1022600002420A4342F4805183830184F0BD828B91
:1022700022F00C028283828B0A4382837047F0B57E
:10228000048C24F480740484858B048C4FF6FF77CF
:1022900007EA012625F0F30507EA031313432B434E
:1022A000DA4A90420ED0DA4A90420BD0B0F1804F19
:1022B00008D0D84A904205D0D74A904202D0D74A97
:1022C000904205D124F40071314341F4807104E05F
:1022D00024F420620A4342F4807183830184F0BDB8
:1022E000028B22F440620283028B4FF6FF7303EAF3
:1022F00001210A4302837047F0B5048C24F01004D6
:102300000484068B048C4FF6FF7505EA011726F44A
:10231000734605EA0333334305EA02221A43BB4BF3
:1023200098420ED0BA4B98420BD0B0F1804F08D0F3
:10233000B84B984205D0B84B984202D0B74B984260
:1023400005D124F02001394341F0100104E024F0CC
:10235000A0030B4343F0100102830184F0BD028B04
:1023600022F00C020283028B0A430283704770B58D
:10237000048C24F001040484058B048C25F0F305FF
:102380004FF6FF7606EA031313432B439F4A90420E
:102390000ED09F4A90420BD0B0F1804F08D09D4A9A
:1023A000904205D09C4A904202D09C4A904205D16E
:1023B00024F002020A4342F0010104E024F00A0280
:1023C0000A4342F001010383018470BD70B50546E4
:1023D0000C468E48854209D08D48854206D0B5F11D
:1023E000804F03D08B48854200D08B48208861887D
:1023F000A288238958B1042811D0082817D028466C
:10240000FFF702FFE1882846BDE87040F0E6284665
:10241000FFF7ADFFE1882846BDE870409FE72846FA
:10242000FFF76AFFE1882846BDE8704058E7284674
:10243000FFF725FFE1882846BDE8704017E72DE942
:10244000F04107460C46002501266188002900D18D
:102450000225A288012A00D102262088238988B17A
:102460003846FFF749FFE1883846FFF739FF2389EF
:10247000324629463846FFF77AFFE1883846BDE8FC
:10248000F0416CE73846FFF772FFE1883846FFF706
:1024900066FF2389324629463846FFF72DFFE1883B
:1024A0003846BDE8F0411BE710B50A884B88CC8858
:1024B0001A438B8823431A430B891A434B89898912
:1024C0001A430A43A0F8442010BD4FF6FF718180E3
:1024D00000210180C180418001727047002101808C
:1024E00041808180C180018141818181C1817047AA
:1024F00000210180418001228280C18001817047DA
:102500000021018041808180C180018141818181E0
:102510007047002904D0018841F001010180704713
:10252000018821F0010101807047002905D030F8B1
:10253000441F41F400410180704730F8441FC1F34B
:102540000E0101807047002A03D082890A438281EC
:10255000704782898A438281704781827047114324
:10256000A0F848107047002A03D082890A4382816C
:10257000704782898A4382817047018921F007016F
:1025800001817047028922F070020A43028170477C
:1025900000B503461846FFF7F5FF188940F007001D
:1025A000188100BD70B50D4604461146602D0CD053
:1025B00001222046FFF7DBFE29462046FFF7E2FF17
:1025C000208940F00700208170BD01222046FFF7DE
:1025D00093FEF1E730B50489E4B24FF6FF7505EAE2
:1025E000032313430B432343038130BD10B504463B
:1025F0002046FFF7EFFF208920F0070040F007009A
:1026000020F0700040F07000208110BD002C0140CF
:10261000003401400004004000080040000C00406D
:1026200010B504462046FFF7D5FF208940F48040CE
:102630002081EAE7018582827047028822F07002D9
:102640000A430280704770B50589048B068C25F01B
:1026500007050D434FF6FC410C4040F201110C43BD
:1026600026F022064FF6FF7101EA031111433143B0
:1026700005810483018470BD028B22F070020A433D
:1026800002837047028B22F4E0424FF6FF7303EAA5
:102690000121114301837047828B22F070020A43AB
:1026A00082837047828B22F4E0424FF6FF7303EA85
:1026B0000121114381837047002904D0018841F032
:1026C000800101807047018821F0800101807047FE
:1026D000002904D0818841F00401818070478188FD
:1026E00021F0040181807047002904D0818841F0E5
:1026F000080181807047818821F00801818070473E
:10270000002904D0818841F00101818070478188CF
:1027100021F0010181807047028B22F008020A43F8
:1027200002837047028B22F400624FF6FF7303EAC4
:102730000121114301837047828B22F008020A4372
:1027400082837047828B22F400624FF6FF7303EAA4
:102750000121114381837047028B22F004020A4356
:1027600002837047028B22F480624FF6FF7303EA04
:102770000121114301837047828B22F004020A4336
:1027800082837047828B22F480624FF6FF7303EAE4
:102790000121114381837047028B22F080020A439A
:1027A00002837047028BC2F30E024FF6FF7303EAF7
:1027B0000121114301837047828B22F080020A437A
:1027C00082837047828BC2F30E024FF6FF7303EAD7
:1027D0000121114381837047028C22F002020A43D7
:1027E00002847047028C22F008020A430284704778
:1027F000028C22F020024FF6FF7303EA011111430D
:1028000001847047028C22F080024FF6FF7303EAC6
:102810000111114301847047028C22F400724FF6BB
:10282000FF7303EA0121114301847047028C22F4F3
:1028300000624FF6FF7303EA0121114301847047E0
:10284000028C22F400524FF6FF7303EA0131114368
:102850000184704710B501238B40048C9C43048491
:10286000038C8A4013430384CFE610B504238B40C6
:10287000048C9C430484038C8A4013430384C4E681
:1028800030B500F1180301248C40058CA543058464
:10289000002911D008290FD0091FC1F34E00184498
:1028A000016821F4E041016001684FF6FF7303EA1B
:1028B00002221143016030BD03EB5100016821F099
:1028C0007001016001681143016030BD002904D02E
:1028D000018841F0020101807047018821F0020166
:1028E00001807047002904D0018841F00401018073
:1028F0007047018821F0040101807047002904D04D
:10290000818841F0800181807047818821F08001B9
:1029100081807047028822F00802028002880A4300
:1029200002807047828822F07002828082880A4387
:1029300082807047028922F00702028102890A43DD
:1029400002817047028922F08002028102890A43D3
:102950000281704781847047818570478186704706
:102960000187704781877047A0F840107047028840
:1029700022F44072028002880A4302807047808EEF
:102980007047008F7047808F7047B0F840007047E5
:10299000808C7047008D704702460020128A0A42E0
:1029A00000D001207047C9430182704702460020D1
:1029B000138A0B4092890A40002B02D0002A00D0D3
:1029C00001207047C9430182704770B5A0FB0140E8
:1029D000B4F1805170F1000024BF002070BD20468A
:1029E00000F0C1F805001CBF214600F01DF9284683
:1029F00070BD70B50446051F00F06AF80068002C31
:102A000014BF446870BD002C18BFAC423CBF2046C8
:102A10006468F8D301680A18AA4218BF456003D158
:102A20002A6805461144016028684119A1421CBF6B
:102A30006C6070BD6168696021680844286070BD81
:102A4000032A40F2308010F0030C00F0158011F8DA
:102A5000013BBCF1020F624498BF11F801CB00F8B2
:102A6000013B38BF11F8013BA2F1040298BF00F806
:102A700001CB38BF00F8013B11F0030300F0A28046
:102A8000083AC0F0088051F8043B083A51F804CBEA
:102A9000A0E80810F5E7121D5CBF51F8043B40F8B0
:102AA000043BAFF30080D20724BF11F8013B11F8BB
:102AB00001CB48BF11F8012B24BF00F8013B00F8FF
:102AC00001CB48BF00F8012B704770477047704733
:102AD000004870478C01002070477047704770476E
:102AE00038B504460A4600206946AFF30080002846
:102AF00008BF38BD02460099204600F0C2F8012008
:102B000038BD012000F0D7B8F8B5AFF30080054616
:102B100000200C46102000BF0646A819A0420DD97F
:102B2000324669460020AFF30080070008BF00F07E
:102B3000C2F80098A04218BF0546C419FFF7C8FFA5
:102B400005600746F01D20F007004619284600F0F2
:102B500091F8B44208BFF8BDA21B31463868BDE801
:102B6000F84000F08EB870B50646FFF7B1FF056873
:102B700006F10B0020F00704B4429CBF002070BD9A
:102B80002B466A68BAB11068A04210D304F108015C
:102B900088423CBF5068586007D3516810194160A3
:102BA0001168091B016058601460101D70BD134648
:102BB0005268002AE7D121462846FFF791FF0028F6
:102BC000DED170BD10B5203AC0F00B80B1E81850CE
:102BD000203AA0E81850B1E81850A0E81850BFF407
:102BE000F5AF5FEA027C24BFB1E81850A0E81850A6
:102BF00044BF18C918C0BDE810405FEA827C24BFFA
:102C000051F8043B40F8043B08BF7047D20728BF87
:102C100031F8023B48BF11F8012B28BF20F8023BD6
:102C200048BF00F8012B70474FF000020429C0F0A4
:102C3000128010F0030C00F04780CCF1040CBCF1C2
:102C4000020F18BF00F8012BA8BF20F8022BA1EB40
:102C50000C0100F039B85FEAC17C24BF00F8012BF9
:102C600000F8012B48BF00F8012B7047004870475F
:102C70008401002000210160C0E90110704710208C
:102C80007047034640688C46002818BF88423CBF06
:102C900003464068F8D318681844884207D00CF1FE
:102CA000030020F00700001D411A521A0146081DBA
:102CB0000A60FFF79EBE10B500F05CF8BDE810405A
:102CC00000F052B84FF0000200B513469446964605
:102CD000203922BFA0E80C50A0E80C50B1F120012F
:102CE000BFF4F7AF090728BFA0E80C5048BF0CC0DD
:102CF0005DF804EB890028BF40F8042B08BF70473B
:102D000048BF20F8022B11F0804F18BF00F8012BAC
:102D100070477546FFF7AAFFAE4605006946534661
:102D200020F00700854618B020B5FEF737FBBDE858
:102D300020404FF000064FF000074FF000084FF022
:102D4000000B21F00701AC46ACE8C009ACE8C009B3
:102D5000ACE8C009ACE8C0098D4670470446AFF343
:102D600000802046FDF72FFA002801D000F02AB895
:102D70007047000010B5012805D0002103A000F025
:102D800028F8012010BD09A1F8E700005349475277
:102D9000544D454D3A204F7574206F66206865612B
:102DA00070206D656D6F7279000000003A204865F3
:102DB0006170206D656D6F727920636F72727570CE
:102DC0007465640001491820ABBEFEE726000200CE
:102DD000704770B505460C460A2000E06D1C00F0F7
:102DE00011F835B128780028F8D102E0641C00F011
:102DF00009F814B120780028F8D1BDE870400A2005
:102E0000AFF3008008B569468DF800000320ABBE23
:102E100008BD0000342E0008000000200001000062
:102E20006C010008342F000800010020E8060000B3
:102E30008801000800A24A04000000000000000011
:102E4000010203040607080900000000000000005A
:102E50000000000000000000000000000000000072
:102E60000000000010EF01FFFFFFFF01000713004B
:102E7000000000001B0CEF01FFFFFFFF010003013A
:102E800000050DEF01FFFFFFFF0100040201000834
:102E90000DEF01FFFFFFFF0100040202000911EF27
:102EA00001FFFFFFFF0100080401000003E700F835
:102EB0000CEF01FFFFFFFF0100030500090FEF0109
:102EC000FFFFFFFF01000606020000000F10EF01E8
:102ED000FFFFFFFF0100070C00000001000F0CEFD7
:102EE00001FFFFFFFF0100030D00110000000000C3
:102EF00000000000000000000000000000000100D1
:102F00000100ABEF02000600FF0000000000FFFF21
:102F1000FFFF0000000000000000000000000204AD
:102F20000608000000000102030401020304060772
:042F3000080900008C
:0400000508000131BD
:00000001FF
